:020000040800F2
:10000000000002201D2D0008C9280008CB28000888
:10001000CD280008CF280008D128000800000000E3
:10002000000000000000000000000000D3280008CD
:10003000D528000800000000D7280008D9280008AB
:100040006D2D00086D2D00086D2D00086D2D000828
:100050006D2D00086D2D00086D2D00086D2D000818
:100060006D2D00086D2D00086D2D00086D2D000808
:100070006D2D00086D2D00086D2D00086D2D0008F8
:100080006D2D00086D2D00086D2D00086D2D0008E8
:100090006D2D00086D2D00086D2D00086D2D0008D8
:1000A0006D2D00086D2D00086D2D00086D2D0008C8
:1000B0006D2D00086D2D00086D2D00086D2D0008B8
:1000C0006D2D00086D2D00086D2D00086D2D0008A8
:1000D0006D2D00086D2D00086D2D00086D2D000898
:1000E0006D2D00086D2D00086D2D00086D2D000888
:1000F0006D2D00086D2D00086D2D00086D2D000878
:100100006D2D00086D2D00086D2D00086D2D000867
:100110006D2D00086D2D00086D2D00086D2D000857
:100120006D2D00086D2D00086D2D00086D2D000847
:100130006D2D00086D2D00086D2D00086D2D000837
:100140006D2D00086D2D00086D2D0008DD280008BC
:100150006D2D00086D2D00086D2D00086D2D000817
:100160006D2D00086D2D00086D2D00086D2D000807
:100170006D2D00086D2D00086D2D00080000000099
:080180006D2D00086D2D000833
:1001880010B5054C237833B9044B13B10448AFF3C9
:1001980000800123237010BDC4010020000000006E
:1001A800802F000808B5034B1BB103490348AFF380
:1001B800008008BD00000000C8010020802F000852
:1001C80053B94AB9002908BF00281CBF4FF0FF31B6
:1001D8004FF0FF3000F07AB9ADF1080C6DE904CEAC
:1001E80000F006F8DDF804E0DDE9022304B070470A
:1001F8002DE9F0478C460D460446089E002B51D148
:100208008A4217466DD9B2FA82FEBEF1000F0BD0B2
:10021800CEF1200C01FA0EF520FA0CFC02FA0EF7CA
:100228004CEA050C00FA0EF44FEA174A250CBCFB01
:10023800FAF81FFA87F90AFB18CC45EA0C4508FBBF
:1002480009F3AB420AD9ED1908F1FF3280F0238196
:10025800AB4240F22081A8F102083D44ED1AA4B255
:10026800B5FBFAF00AFB105544EA054400FB09F90E
:10027800A14509D9E41900F1FF3380F00A81A145AD
:1002880040F2078102383C44A4EB090440EA0840E4
:100298000021002E61D024FA0EF40023346073602C
:1002A800BDE8F0878B4207D9002E54D0002186E89C
:1002B80021000846BDE8F087B3FA83F1002940F031
:1002C8008E80AB4202D3824200F2FA80841A65EB38
:1002D80003050120AC46002E3FD086E81010BDE88B
:1002E800F08712B90127B7FBF2F7B7FA87FEBEF11C
:1002F800000F34D1EB1B3A0C1FFA87FC0121B3FB2A
:10030800F2F8250C02FB183345EA03450CFB08F309
:10031800AB4207D9ED1908F1FF3002D2AB4200F227
:10032800D1808046ED1AA3B2B5FBF2F002FB10555E
:1003380043EA05440CFB00FCA44507D9E41900F185
:10034800FF3302D2A44500F2B8801846A4EB0C048F
:1003580040EA08409DE731463046BDE8F087CEF1D7
:10036800200405FA0EF307FA0EF720FA04F83A0CFF
:1003780025FA04F448EA0308B4FBF2F14FEA1845F9
:1003880002FB11441FFA87FC45EA044501FB0CF304
:10039800AB4200FA0EF409D9ED1901F1FF3080F0F3
:1003A8008A80AB4240F2878002393D44EB1A1FFA3B
:1003B80088F5B3FBF2F002FB103345EA034500FB76
:1003C8000CF3AB4207D9ED1900F1FF386FD2AB42FD
:1003D8006DD902383D44EB1A40EA01418FE7C1F17B
:1003E800200722FA07F88B4005FA01F448EA0303CC
:1003F80020FA07FE4FEA134CFD404EEA040EB5FB07
:10040800FCF94FEA1E440CFB19551FFA83F844EA1D
:10041800054509FB08F4AC4202FA01F200FA01FAB8
:1004280008D9ED1809F1FF3043D2AC4241D9A9F1FE
:1004380002091D442D1B1FFA8EFEB5FBFCF00CFBB8
:1004480010554EEA054400FB08F8A04507D9E41802
:1004580000F1FF3529D2A04527D902381C4440EACB
:100468000940A4EB0804A0FB02894C45C6464D464A
:1004780015D312D056B1BAEB0E0364EB050404FA97
:1004880007F7CB401F43CC40376074600021BDE8BC
:10049800F0871846F8E69046E0E6C245EAD2B8EB9F
:1004A800020E69EB03050138E4E72846D7E7404622
:1004B80091E78146BEE7014678E702383C4445E7C4
:1004C800084608E7A8F102083D442BE7704700BF3B
:1004D80038B50E4A0E4B054618784FF47A73B3FBBD
:1004E800F0F31068B0FBF3F000F0A8F8044658B930
:1004F8000F2D09D8024629464FF0FF3000F05EF86C
:10050800044B20461D6038BD012038BD180100206D
:10051800000000200400002008B50B4B1A6842F4C4
:1005280000721A601A6842F480621A601A6842F40B
:1005380080721A60032000F02FF80020FFF7C8FF30
:1005480002F09EF9002008BD003C0240034A044B1B
:1005580011681B780B441360704700BFF00100203E
:1005680000000020014B1868704700BFF001002010
:1005780038B50446FFF7F6FF631C1CBF054B1B7814
:10058800054618BFE418FFF7EDFF401B8442FAD870
:1005980038BD00BF00000020074AD36823F4E06399
:1005A8001B041B0C43F0BF63000243F4003300F448
:1005B800E0600343D360704700ED00E0174B30B5AF
:1005C800DC68C4F30224C4F10703251D042B28BFEB
:1005D8000423062D4FF0010505FA03F303F1FF3359
:1005E8008CBF033C00241940A14005FA04F4013CE7
:1005F8002240002842EA01024FEA0212AFBF00F18E
:10060800604000F00F00064BD2B2A5BF00F5614074
:10061800D2B21A5480F8002330BD00BF00ED00E0CC
:1006280014ED00E04209012300F01F0003FA00F076
:10063800014B43F82200704700E100E00138B0F1B7
:10064800807F0AD2064B074A5860F02182F82310AF
:100658000020072298601A6070470120704700BF89
:1006680010E000E000ED00E02DE9F04F85B00B68E8
:10067800DFF8AC81684ADFF8AC91019300234FF0B2
:10068800010E019C0EFA03FE0EEA0406B64540F080
:10069800AE804C6824F01007022F16D14FEAD30A17
:1006A80000EB8A0A03F0070BDAF820504FEA8B0BAD
:1006B8004FF00F0C0CFA0BFC25EA0C0C0D6905FA2F
:1006C8000BF545EA0C05CAF820504FEA430A032502
:1006D800D0F800B005FA0AF5ED4304F0030C0BEA74
:1006E800050B0CFA0AFC013F4CEA0B0C012FC0F871
:1006F80000C011D8876807EA050BCF6807FA0AFC1B
:100708004CEA0B078760476827EA0E0EC4F3001708
:100718009F4047EA0E074760C7683D408F6807FA61
:100728000AF73D43C560E50061D54FF0000BCDF8F1
:100738000CB0D8F84470394D47F48047C8F8447075
:10074800D8F8447007F480470397039F23F0030702
:1007580007F1804707F59C3703F0030CD7F808A08A
:100768004FEA8C0C4FF00F0E0EFA0CFEA8422AEA44
:100778000E0E43D005F58065A84241D005F5806589
:10078800A8423FD005F58065A8423DD005F58065B3
:10079800A8423BD048453BD005F50065A84239D072
:1007A80005F58065A84214BF0825072505FA0CF54C
:1007B80045EA0E05BD601568F74314F4803F0CBF89
:1007C8003D4035431560556814F4003F0CBF3D406B
:1007D80035435560956814F4801F0CBF3D40354380
:1007E8009560D568A40254BF3D403543D5600133B8
:1007F800102B7FF444AF05B0BDE8F08F5D46D5E718
:100808000125D3E70225D1E70325CFE70425CDE766
:100818000525CBE70625C9E7003C0140000002405A
:1008280000380240001402400AB18161704709048F
:10083800FBE7F0B506468BB0002864D003233446A6
:1008480080F8B93302F0C6F854F8100B00F0D4FE63
:100858000FCC6D460FC50FCC0FC594E8030085E893
:100868000300371D97E80E00306800F085FE002170
:10087800306800F0C7FE00213346324606F1100406
:100888000125084682F83810D18701310F2982F8EE
:10089800395082F83B0010645064D06402F11C02A5
:1008A800F0D10022D6F800E0114602F1400083F8AA
:1008B800F821DA870EEB800001320F2A83F8F9114C
:1008C80083F8FB11C3F80012C3F80412C3F80C1222
:1008D800416003F11C03E8D10FCC6D460FC50FCC66
:1008E8000FC594E8030085E80300704697E80E00FA
:1008F80000F0A0FE012386F8B933306801F0BDF995
:1009080000200BB0F0BD0120FBE790F8B833012BB5
:1009180010B504460CD0012380F8B833006801F004
:10092800A0F9206800F062FE002084F8B80310BD2A
:10093800022010BD2DE9F04FD0F8009087B0044692
:10094800484601F0D4F90290002840F02E81206832
:1009580001F09FF9002800F02881206801F099F93A
:10096800850748BF2268206842BF536903F0020325
:10097800536101F08EF910F400250AD0206801F0C7
:100988008CF909F530660746A2460025002F40F08D
:100998000F81206801F07DF941030BD5206801F033
:1009A80084F92646039009F510680025039B002B5F
:1009B80040F03F81206801F06CF900280DDAD9F881
:1009C800043823F00103C9F80438204602F080F8FF
:1009D8002268536903F000435361206801F059F914
:1009E80006050BD5D9F80838D80702D5204602F0F5
:1009F80057F82268536903F400635361206801F0D3
:100A080048F9C10437D509F500667368206823F0F2
:100A180001037360102100F0A9FE616809F51063F5
:100A2800FF220298884240F092814FF0FF33B36171
:100A3800F36943F00113F361236B002B00F08F81FE
:100A4800D6F8843043F00B03C6F88430736C43F057
:100A58000B037364D9F80038217C206823F4FE6303
:100A6800C9F8003804F56F7201F060F9226853691B
:100A780003F480535361206801F00BF982041DD5FB
:100A8800206801F038F92068C36823F47053C36004
:100A980000F095FE002840F06B812268E0604FF47A
:100AA80000736361D36843F41053D360204601F0A8
:100AB800E6FF2268536903F400535361206801F08C
:100AC800E8F8C3062BD52268936923F010039361D5
:100AD800D9F82060C6F34343022B06F00F0840F014
:100AE800A88147F6F0731E4214D01C2707FB08475D
:100AF800C6F30A163246D7F80412484601F05BF8E6
:100B0800D7F804323344C7F80432D7F810321E44F9
:100B1800C7F810622268936943F010039361206854
:100B280001F0B7F8070707D5204601F0A4FF2268AF
:100B3800536903F008035361206801F0AAF8C6025C
:100B480008D5E9B2204601F0CBFF2268536903F4C7
:100B580080135361206801F09CF8800208D5E9B23F
:100B6800204601F0B9FF2268536903F4001353616A
:100B7800206801F08EF8410007D5204601F0B4FF47
:100B88002268536903F080435361206801F081F8BB
:100B980042070AD523685D686B0702D5204601F035
:100BA800A7FF23685A6815435D6007B0BDE8F08F5A
:100BB800F80738D55FFA85FB5946206801F07DF8BB
:100BC80010F0010F804621D0216901239942B360BA
:100BD8000CD13169DAF80002C1F31201411ACAF8DE
:100BE8001012DAF804120844CAF8040259462046DA
:100BF80001F030FF2169012908D13DB9D4F80C2250
:100C080022B904F56F72206801F090F818F0080F07
:100C180004D0204601F018FF0823B36018F0100F25
:100C28001CBF1023B36001357F0820360AF11C0A67
:100C3800ACE6039BDA0758D55FFA85FB594620686E
:100C480001F045F8C307074620D5D9F83438012103
:100C5800A94023EA0103C9F834380123C8F8083049
:100C68002369012B01BF736C326C9B18736459465E
:100C7800204601F0F8FE2169012907D135B9E36C56
:100C880023B904F56F72206801F050F8380744BFA3
:100C98000823C8F80830F90644BF1023C8F80830FC
:100CA8007A0644BF4023C8F80830BB0744BF022374
:100CB800C8F808303F0618D523680493F76C336DDD
:100CC800FF1A336C9F4228BF1F46049B03F510632D
:100CD80007F1030A03EB45134FEA9A0A0593059BAC
:100CE8009B699BB2534508D82FB3039B5B0801351A
:100CF80003931C3608F1200858E6326DF36C9342D2
:100D0800F2D9002BF0D0376C04989B1A9F4228BF69
:100D18001F46237C00935A46BBB2716C00F037FF24
:100D2800736C3B447364336D07F1030A3B444FEA29
:100D38009A0A3365D3E7049B012203F5006BD3F8C5
:100D48003438AA4023EA0203CBF83430CDE70298BE
:100D58009A600130C3F808220290203361E6736973
:100D680043F00B037361336943F00B03336171E69E
:100D78000323E3604023636100F0F8FB344B354AFA
:100D880003449342236804D8DA6842F47052DA6064
:100D98008CE6314A314902448A4203D8DA6842F47F
:100DA8006052F4E7A0F574022D49A2F510528A4268
:100DB80003D8DA6842F45052E9E7A0F1837229496E
:100DC800A2F5E7428A4203D8DA6842F44052DEE7E5
:100DD800254A264902448A4203D8DA6842F4305246
:100DE800D5E7234A234902448A4203D8DA6842F401
:100DF8002052CCE7204A214902448A4203D8DA68C3
:100E080042F41052C3E7A0F1B7721D49A2F5585237
:100E18008A4203D8DA6842F40052B8E7194A1A49F4
:100E280002448A42DA6894BF42F4E05242F4C05263
:100E3800ADE7062B7FF46EAE082204F56F714846C5
:100E48001C2700F0B8FE07FB0847C6F30A165CE645
:100E5800405327FFFF340C00401E1BFF3F420F008A
:100E68007F4F12001FD6130060B6E5FE5FE3160041
:100E780000D3CEFE3F771B00C05BB3FEBF912100BD
:100E88001F753800E05459FEDF9C410090F8B833D4
:100E9800012B10B5044609D0012380F8B833006847
:100EA80000F0CFFE002084F8B80310BD022010BD6A
:100EB80070B54EB2002E04464FF01C0501F07F00BD
:100EC800B5BF05FB004105FB0141383101F5FC7157
:100ED800C0B2002EB8BFC880022BCB704FEAD675BF
:100EE80004BF00230B7108704D7094F8B8338A6002
:100EF800012B09D0012384F8B833206800F07AFC6C
:100F0800002084F8B80370BD022070BD4BB2002BDE
:100F180010B54FF01C02044601F07F00B5BF02FB7C
:100F2800004102FB0141383101F5FC71DB0F08700B
:100F38004B7094F8B833012B09D0012384F8B833E7
:100F4800206800F096FC002084F8B80310BD022049
:100F580010BD38B501F07F051C2404FB050104FB16
:100F6800050401F5FC71C4F80C320023C4F804220E
:100F7800C4F8103284F8F93184F8F851036900682C
:100F8800012B08BFC4F80822DAB21DB900F092FD9F
:100F9800002038BD00F0C8FCFAE71C2301F00F015F
:100FA80003FB0101B1F81002704738B501F07F0565
:100FB8001C2404FB050104FB05043831E364002309
:100FC80023650123626484F8393084F83850036952
:100FD8000068012B08BFA264DAB21DB900F06AFDEF
:100FE800002038BD00F0A0FCFAE738B54BB2002B62
:100FF80001F07F054FF01C02B5BF02FB050102FBA3
:101008000101383101F5FC710122DB0FEDB28A7064
:101018000D704B7090F8B833934204460FD080F8A7
:10102800B823006800F0D5FD2DB904F56F72217C56
:10103800206800F07BFE002084F8B80338BD022049
:1010480038BD38B54BB2002B05464FF01C0201F0F5
:101058007F00B5BF02FB005102FB0151383101F599
:10106800FC71DB0F00248C7008704B7095F8B83356
:10107800012B09D0012385F8B833286800F0C8FD92
:1010880085F8B843204638BD022038BD006870B5E1
:10109800436A21B943EA02438362002070BD846A2F
:1010A800002503EB14434E1EECB2B44205F10105D2
:1010B80006DB3F3100EB810043EA02434360ECE783
:1010C800403400EB8404646803EB1443ECE70368E2
:1010D80000205962704700002DE9F341044618B911
:1010E800012002B0BDE8F0810368DD0710D4236851
:1010F800980758D423681A0700F19A8023685B0779
:1011080000F1B880A269002A40F019810020E8E7C0
:10111800A64B9A6802F00C02042A07D09A6802F0DB
:101128000C02082A0AD15B68590207D59F4B1B6835
:101138009A03DCD56368002BD9D1D1E763689B4D4E
:10114800B3F5803F11D12B6843F480332B60FFF750
:1011580009FA964D06462B689B03C8D4FFF702FA96
:10116800801B6428F7D90320BBE7B3F5A02F04D16F
:101178002B6843F480232B60E5E72A6822F4803249
:101188002A602A6822F480222A60002BDFD1FFF728
:10119800E9F906462B689F03A9D5FFF7E3F9801BF9
:1011A8006428F7D9DFE7814B9A6812F00C0F07D053
:1011B8009A6802F00C02082A11D15B685E020ED40C
:1011C8007A4B1A68950702D5E268012A88D11A680D
:1011D800216922F0F80242EAC1021A608AE7E2684D
:1011E800734BB2B101221A60FFF7BCF96F4D064686
:1011F8002B68980707D52B68226923F0F80343EA80
:10120800C2032B6076E7FFF7ADF9801B0228EFD900
:10121800A9E71A60FFF7A6F9644D06462B689907F7
:101228007FF568AFFFF79EF9801B0228F6D99AE789
:101238006269604B7AB101221A60FFF793F95B4D3E
:1012480006466B6F9F073FF559AFFFF78BF9801B79
:101258000228F6D987E71A60FFF784F9534D064646
:101268006B6F98077FF54AAFFFF77CF9801B022860
:10127800F6D978E74D4B1A6C12F0805228D10192BA
:101288001A6C42F080521A641B6C03F0805301936D
:10129800019B0126484D2B68D9051BD5A368434DF2
:1012A800012B27D12B6F43F001032B67FFF75AF966
:1012B8003E4D074641F288382B6F9B0739D5002EE3
:1012C8003FF420AF394A136C23F08053136419E7B5
:1012D8000026DFE72B6843F480732B60FFF742F9A1
:1012E80007462B68DA05D9D4FFF73CF9C01B02285A
:1012F800F7D938E7052B04D12B6F43F004032B678C
:10130800D0E72A6F22F001022A672A6F22F004022E
:101318002A67002BCAD1FFF725F941F2883807461A
:101328002B6F9807CBD5FFF71DF9C01B4045F7D9A0
:1013380019E7FFF717F9C01B4045BDD913E71B4D47
:10134800AB6803F00C03082B3FF4CAAE1B4E002316
:10135800022A336034D1FFF705F907462B68990153
:101368001ED4226AE3691343626A43EA8213E26A7B
:1013780043EA0263A26A0D4C5208013A43EA024367
:101388006B6001233360FFF7EDF8054623689A0187
:101398003FF5BCAEFFF7E6F8401B0228F6D9E2E6B7
:1013A800FFF7E0F8C01B0228D8D9DCE60038024075
:1013B80000004742800E47420070004060004742EC
:1013C800FFF7D0F804462B689B017FF59FAEFFF727
:1013D800C9F8001B0228F6D9C5E600BF134908B5AD
:1013E8008B6803F00C03042B03D0082B03D01048A0
:1013F80008BD104808BD4A684B68496813F4800363
:1014080014BF0C480A48C1F3881118BF002302F022
:101418003F02A1FB0001FEF7D3FE044B5B68C3F358
:10142800014301335B00B0FBF3F008BD0038024014
:101438000024F40000127A002DE9F0410D4604461C
:1014480010B90120BDE8F081444B1A6802F00F0280
:101458008A4228D321688F072DD4C80740D43F4B30
:101468001A6802F00F02954266D3226851076CD4BD
:10147800130707D53A4A2169936823F4604343EA7E
:10148800C1039360FFF7AAFF354B364A9B68C3F345
:101498000313D35CD840344B18600020FFF718F8CA
:1014A8000020BDE8F081CAB21A701B6803F00F0370
:1014B8009942C6D1CEE72A4B11F0040F1EBF9A6895
:1014C80042F4E0529A600E0742BF9A6842F46042C2
:1014D8009A609A68A06822F0F00202439A60BCE71A
:1014E80062681F4B012A1DD11B6813F4003FA8D066
:1014F8001B4EB36823F003031343B360FFF732F8BE
:1015080041F288380746B368626803F00C03B3EB0E
:10151800820FA4D0FFF726F8C01B4045F3D903205B
:10152800BDE8F081911E01291B6802D813F0007FE5
:10153800DDE713F0020FDAE7EAB21A701B6803F06E
:101548000F039D427FF47DAF8FE70549E0688B6804
:1015580023F4E05303438B608AE700BF003C02405A
:1015680000380240982F000818010020014B186825
:10157800704700BF1801002084B038B505AD85E874
:101588000E000A9B012B044626D1836B23F480337B
:101598008363C36823F4840323F04003C360C368F0
:1015A80023F44013C360119B012B02BFC36843F4AB
:1015B8008013C36000F0DEFB089B012B07D1A368F2
:1015C80043F00603A360A36843F02003A360BDE8CB
:1015D8003840002004B07047C36843F04003C3603C
:1015E80000F0C8FB4FF48033A363E5E7836843F05A
:1015F8000103836000207047836823F00103836040
:101608000020704708B5C368012923F0C043C360B0
:1016180008D1C36843F00053C3603220FEF7A8FF27
:10162800002008BD0029F8D1C36843F08043C36097
:10163800F3E7000084B02DE9F041044607A880E8EC
:101648000E00119E0A9FA36B8846A6B943F40013A7
:10165800A3630023C4F8003ED4F80038C4F8003867
:101668000C9B012B04F500655ED1099939B9204618
:1016780000F09EF807E043F40023A363E9E7194666
:10168800204600F095F81021204600F06FF820461B
:1016980000F07EF800234FF0FF322B6119466B6192
:1016A8004FF09040AA614FF0FF0EEB6104F5106215
:1016B80043453BD1002104F5306208464FF0904E77
:1016C8004FF0FF0C8B423ED12B69012F23F480731E
:1016D8002B6108D1234B2B632B6B43F4803343F0EE
:1016E80003032B632B6B0023A3616FF080436361BB
:1016F8001FB9A36943F01003A361A2691A4B1343EE
:10170800A3610D9B1BB1A36943F00803A361012EDC
:1017180001BFA36943F0804343F00403A361BDE81C
:10172800F041002004B070470321A0E7D2F800C0C0
:10173800BCF1000FB4BF1060116001331161C2F831
:1017480008E02032B4E7D2F80080B8F1000FB4BF47
:10175800C2F800E0106001311061C2F808C0203200
:10176800B0E700BF0001800000383C80890141F0EB
:101778002001064A0161013A05D0036913F02003EC
:10178800F9D1184670470320704700BF410D030088
:101798001023064A0361013A05D0036913F01003C8
:1017A800F9D1184670470320704700BF410D030068
:1017B800D0F800381943C0F800180020704700F529
:1017C8000062D0F8080810F0060012D0936803F001
:1017D8000603022B0CD0936803F00603062B07D0F0
:1017E800936803F00603042B14BF002002207047FF
:1017F8000320704730B54B780C78D0F81C5800F5AA
:101808000062012B1BD1A3409BB22B4300F5106053
:10181800D36100EB44131A6812040ED48A68C8789E
:101828001D68C2F30A0242F0805242F4004242EAC2
:10183800804040EA845028431860002030BD4FF4AF
:101848008033A34000F530602B4300EB4410D36194
:1018580003681B04F1D48B68C9780268C3F30A03D0
:1018680043F0805343F4004343EA81431343036046
:10187800E3E700F001B8000070B54B78012B0E4685
:10188800054609784FF0200326D100F5106213FBB6
:1018980001231A6822F400421A604FF000621A60AD
:1018A8004FF080421A601F4A013A01D1032070BDEF
:1018B8009C6814F08044F7D110212846FFF756FFA2
:1018C8003178D5F81C2801238B409BB222EA030308
:1018D800C5F81C38204670BD00F5306213FB0123A3
:1018E8001A6822F400421A604FF000621A604FF042
:1018F80080421A600B4A013AD8D0986810F010005C
:10190800F9D1D5F8043843F48063C5F80438D5F81C
:101918001C384FF480328A4023EA0203C5F81C3889
:1019280070BD00BF410D0300F7B54B780C78012B53
:101938004B6977D1202600F5106516FB04542669FB
:10194800002B38D126F0FF5626F4C01626612669EA
:1019580046F4002626612669F60CF6042661012A5B
:1019680050D10C780E6905EB44146661CE78012ECF
:101978000FD1D0F808480F7814F4807F4FF0200476
:1019880014FB075427680CBF47F0005747F08057EF
:1019980027600F7805EB4715012E2C6844F00444A6
:1019A8002C6005D100929BB23A46C96800F0EFF866
:1019B800002003B0F0BDF60CF604266126698F6896
:1019C80026F0FF5626F4C0162661DE19013EB6FB46
:1019D800F7F7374ED4F810E006EAC74646EA0E068F
:1019E80026612769C3F312063E432661CE78012E8D
:1019F8005AD1266926F0C0462661266946F0005667
:101A08002661ACE7CE78012EB3D0002BAED091F88A
:101A180000E0D0F83478012404FA0EF43C43C0F80E
:101A28003448A3E700F5306505EB44142569ED0C4F
:101A3800ED042561256925F0FF5525F4C0152561BC
:101A48008D68FBB92369C5F312051D432561236918
:101A580043F400232361012A04BFCB686361CB7878
:101A6800012B0AD1D0F8083813F4807F23680CBF03
:101A780043F0005343F080532360236843F004434A
:101A8800236095E70A4E27692B44013BB3FBF5F326
:101A980006EAC3463E4326619BB226695D43C5F309
:101AA800120535432561D6E7012AAED159E700BFB3
:101AB8000000F81F4B78012B70B50B784D6943D1A6
:101AC800202400F5106614FB03631C69CDB924F0CB
:101AD800FF5424F4C0141C611C6944F400241C61E4
:101AE8001C69E40CE4041C610D7806EB4513012A1B
:101AF8001C6844F004441C601BD10A695A61002028
:101B080070BDE40CE4041C611C6924F0FF5424F447
:101B1800C0141C618C68A54288BF4C611C6944F4E0
:101B280000241C614C691D69C4F312042C431C6118
:101B3800DAE74B69002BE2D0D0F834280123AB4018
:101B48001343C0F83438DAE700F5306000EB43108F
:101B58000369DB0CDB040361036923F0FF5323F4FF
:101B6800C01303618B6805B14B61046944F4002418
:101B780004610469C3F312032343012A036104BF08
:101B8800CB684361036843F004430360B7E710B5CB
:101B98009DF808404CB9033300F5805023F0030347
:101BA80000EB02320B44994201D1002010BD51F8DC
:101BB800040B1060F7E7033222F003020A4400F531
:101BC8008050914201D108467047036841F8043BB0
:101BD800F7E74B780A78012B4FF020030BD100F57B
:101BE800106013FB02000368002B0BDB036823F073
:101BF8008043036006E000F5306013FB02000368D1
:101C0800002BF3DA036843F40013036000207047E5
:101C18004B780A78012B0CBF00F5106000F5306096
:101C2800202313FB0200036823F400130360CB781E
:101C3800023B012B9EBF036843F0805303600020E2
:101C48007047D0F8003823F4FE63C0F80038D0F8A5
:101C58000038090101F4FE611943C0F8001800209A
:101C6800704708B5D0F8043823F00203C0F80438E8
:101C78000320FEF77DFC002008BD08B5D0F8043825
:101C880043F00203C0F804380320FEF771FC00207B
:101C980008BD4269806910407047D0F8183800F5CF
:101CA8000060C0691840000C7047D0F8183800F57B
:101CB8000060C069184080B2704700F5306303EBDC
:101CC800411100F500608A6840691040704710B5FE
:101CD800D0F81048D0F8343800EB4110CB4000F56C
:101CE8001060DB018068DBB22343184010BD4069F7
:101CF80000F001007047D0F8003923F4FF6323F0A7
:101D08000703C0F8003900F500639A6802F006027C
:101D1800042A02BFD0F8002942F00302C0F80029C3
:101D28005A6842F480725A600020704710B5002447
:101D3800C0F8104BD0F8104B44F40024C0F8104BF6
:101D4800D0F8104B44F01804C0F8104BD0F8104BE2
:101D5800012900F5306344F0C04408BF4FF08023E8
:101D6800C0F8104B04BFC0F8142BC0F8003B00208B
:101D780010BD00000A4B013B01D1032070470269E6
:101D8800002AF8DA0369064A43F001030361013ABD
:101D9800F3D0036913F00103F9D11846704700BF67
:101DA800410D0300D0F818321BB10020C3F814020B
:101DB800704702207047D0F81C3210B5D0F818428E
:101DC8005BB194F80002FF2807D09B6894F80122C1
:101DD80021469847FF2384F80032002010BD0000F8
:101DE80043230380004870474000002043230380BA
:101DF8000048704784000020432303800048704750
:101E0800D40000200A23038000487047C80000203F
:101E180038B50546D0F8184200F024FFD5F8183236
:101E2800C4F80C024BB1D5F81C32D4F80402DB68B4
:101E380004F503719847002038BD022038BD000022
:101E4800F8B50F7817F0600306460C4623D0202B10
:101E580019D1CA884B78C2B13906D0F818520BD5B7
:101E6800D0F81C1218468F682946B847E2882946D8
:101E7800304600F084FB06E085F8003285F8012240
:101E8800294600F091FB0020F8BDD0F81C028468B8
:101E98001846A047F7E74B780A2BF4D101220149ED
:101EA800E7E700BFE001002010B58121044600F0FB
:101EB80071FE0121204600F06DFE8221204600F0CF
:101EC80069FED4F8183253B1D4F81C325B689847CD
:101ED800D4F8180200F074FF0023C4F81832002068
:101EE80010BDF8B5037C04467BBB4FF40073022297
:101EF800812100F03FFE4FF40073022201212046A9
:101F080000F038FE082303228221204600F032FE2A
:101F18004FF4077000F04CFF0646C4F8180220B3CF
:101F2800D4F81C321B689847277C0025C6F8145241
:101F3800C6F8185287B94FF40073D6F80422012165
:101F4800204600F081FE3846F8BD40230222812158
:101F580000F010FE4023D0E74023D6F804220121E8
:101F6800204600F071FE2846F8BD0120F8BD19B1E1
:101F7800C0F81C120020704702207047D0F81832B1
:101F88000020C3F80812C3F810227047D0F818329E
:101F98000020C3F804127047D0F8182210B562B1B7
:101FA800047C44B94FF40073D2F80422012100F0F4
:101FB8004BFE002010BD4023F6E7022010BD08B5F7
:101FC80080B1D0F8143213B10023C0F8143209B12B
:101FD800C0F81012012380F8FC31027000F08CFD6B
:101FE800002008BD022008BD19B1C0F81412002055
:101FF80070470220704708B500F0AEFD002008BD0C
:1020080008B5D0F814320BB9022008BD1B689847F0
:102018000028F9D108BD08B5D0F814325B68984794
:10202800002008BD38B5044600F50275284600F0C2
:1020380076FA012394F80812C4F8F431B4F80E3291
:10204800C4F8F83101F01F03012B0ED007D3022B7F
:1020580010D001F08001204600F0AAFD03E02946D7
:10206800204600F0E7F8002038BD2946204600F059
:10207800DBF9F8E72946204600F0EEF9F3E738B532
:102088000446154611BBD0F8F431032B0FD1D0F814
:102098000C31D0F8102193420BD99B1A9A4228BFD1
:1020A8001A46C0F80C3192B2294600F08CFA00208A
:1020B80038BDD0F814321B6923B190F8FC21032AEB
:1020C80000D19847204600F086FAF0E7D0F814329D
:1020D8009B69002BEBD090F8FC21032AE7D19847A5
:1020E800E5E770B5134604460E4600293DD1D0F801
:1020F800F421022A0FD1C569026A954214D9AA1A95
:10210800C261194692B200F047FA33461A46194698
:10211800204600F099FD94F80032012B02D10023EB
:1021280084F80032002070BD8369B3FBF2F502FB2E
:10213800153565B99A420AD8D0F8F821934206D2E3
:102148002A4600F029FAC4F8F8512B46DEE7D4F8FD
:102158001432DB682BB194F8FC21032A01D1204604
:102168009847204600F042FAD5E7D0F814325B6968
:10217800002BD7D090F8FC21032AD3D19847D1E778
:1021880038B50022044611464025402300F0F2FCF1
:102198002B46C4F8105100228021204600F0EAFCAA
:1021A800012384F8FC31D4F8183225622BB1D4F815
:1021B800143221795B6820469847002038BD0174A5
:1021C8000020704790F8FC3180F8FD31042380F836
:1021D800FC310020704790F8FD3180F8FC31002078
:1021E800704708B590F8FC21032A04D1D0F81432BE
:1021F800DB6903B19847002008BD00207047002024
:1022080070470020704708B5012280F8FC21D0F8FB
:102218001422017952689047002008BD10B580212A
:10222800044600F0C5FC20460021BDE8104000F03F
:10223800BFBC000037B54B7804460D46092B79D84A
:10224800DFE813F0C900E5007800D90078006D00D8
:102258000A007800B9008D004B881A0A013A062A4C
:1022680068D8DFE802F0041C296767495200D0F8F3
:1022780010321B68207C0DF106019847BDF8062036
:10228800002A67D0EB88002B64D09A4228BF1A46F0
:10229800ADF806200146204600F071F95AE0027CAC
:1022A800D0F8143232B99B6A0DF106009847022320
:1022B8004370E3E7DB6AF7E7DBB2052B3AD8DFE8E0
:1022C80003F003070B0F1317D0F810325B68D1E740
:1022D800D0F810329B68CDE7D0F81032DB68C9E738
:1022E800D0F810321B69C5E7D0F810325B69C1E736
:1022F800D0F810329B69BDE7037CDBB9D0F8143203
:102308000DF106005B6B9847B8E7037C93B9D0F8EA
:1023180014320DF106001B6B98470723C8E78B881A
:1023280043B9CB8833B990F8FC318D78032B05F08D
:102338007F0503D12046FFF771FF0BE080F8FE51BF
:10234800294600F065FC204600F045F92DB102232E
:1023580084F8FC31002003B030BD0123F8E7897808
:10236800304D01292970E5D890F8FC31022B0CD0AA
:10237800032BDFD1B1B9022380F8FC314160FFF7AC
:102388004AFE204600F027F9E4E70029F9D00121A8
:102398000323416080F8FC312046FFF731FE022814
:1023A800EFD1C7E741680129EBD0C9B2FFF733FE87
:1023B80029786160F0E7CA88012ABBD190F8FC311E
:1023C800022B03D0032BB5D1011D64E7014600237E
:1023D80041F8083F5FE790F8FC31023B012BA9D890
:1023E8000123C360D0F804320BB10323C360022277
:1023F80004F10C014FE74B88012BABD1C4F8043230
:10240800D4F8143229469B6820469847B9E790F8D3
:10241800FC31023B012B8DD84B88012B9AD100232C
:10242800ECE700BFE101002038B590F8FC31032B40
:1024380004460D460DD10B79012B0AD8D0F8143279
:102448009B689847EB8813B9204600F0C4F8002031
:1024580038BDFFF7E3FEFAE770B50A788E8802F018
:102468006002202A04460D46F3B205D1D0F8143292
:102478009B689847002070BD4A78012A1CD02AD34F
:10248800032AF7D190F8FC21022A40D0032A02D06F
:10249800FFF7C4FEEEE74A8822B95E0602D0194665
:1024A80000F086FBD4F8143229469B6820469847EA
:1024B800204600F090F8DDE790F8FC21022A26D0AB
:1024C800032AE5D14A88002AD4D15906F0D0194602
:1024D80000F07CFBE6E790F8FC21022A17D0032ADB
:1024E800D6D103F07F0516F0800F00EB05151946CD
:1024F80014BF143505F5827500F076FB68B1012329
:102508002B6002222946204600F039F8B2E75A0625
:10251800B0D0194600F04CFBACE72860F1E70B7827
:1025280003704B784370CA788B7803EB022343809F
:102538004A790B7903EB02238380CA798B7903EB01
:102548000223C380704730B588B105462B1A15F8A9
:10255800014BDBB2002CF9D15B00023313800B7006
:1025680003234B700138022310F8015F05B930BD11
:102578005A1CD2B2CD540233DBB28C54F4E710B5F6
:1025880013460222C0F8F42183610A46C361002180
:1025980000F04CFB002010BD08B513460A46002188
:1025A80000F044FB002008BD10B513460322C0F814
:1025B800F421C0F808310A46C0F80C31002100F0B7
:1025C80043FB002010BD08B513460A46002100F061
:1025D8003BFB002008BD08B50423C0F8F4310023F4
:1025E8001A46194600F022FB002008BD08B505234D
:1025F800C0F8F43100231A46194600F025FB0020E4
:1026080008BD000030B595B03022002108A800F0C0
:10261800DFFB0021142203A800F0DAFB00241D4B85
:1026280001941A6C42F080521A641B6C03F08053B8
:102638000193019B184B02941A6842F480421A6075
:102648001B6803F480430293029B012308934FF411
:10265800803309934FF480030F93082310934FF4AA
:10266800A8730225119308A8072313930E951295B2
:10267800FEF732FD0F2303934FF4A0530693052171
:102688004FF4805303A8049505940793FEF7D4FEEE
:1026980015B030BD003802400070004080B58CB0E5
:1026A800FDF73AFFFFF7AEFF1422002107A800F05C
:1026B8008FFB00246A4B01941A6B6A48DFF8B881D3
:1026C80042F010021A631A6B02F010020192019A8A
:1026D80002941A6B42F004021A631A6B02F00402A5
:1026E8000292029A03941A6B42F080021A631A6BE0
:1026F80002F080020392039A04941A6B42F00102DA
:102708001A631A6B02F001020492049A05941A6B78
:1027180042F002021A631A6B02F002020592059A4D
:1027280006941A6B42F008021A631B6B03F0080345
:10273800069322460821069BFEF776F801221146E9
:102748004948FEF771F822464FF210014748FEF754
:102758006BF80126082507A94248079508960994A9
:102768000A94FDF781FF07A93F48079605270896B1
:1027780009940A94FDF778FF079507A902253A48B6
:10278800089509940A940B97FDF76EFF07A9384836
:1027980007964FF0060ACDF820800994FDF764FFEC
:1027A800102307A932480793089509940A94CDF88D
:1027B8002CA0FDF759FFE02307A92D4807934FF0F8
:1027C8000409089509940A940B97FDF74DFF07A98A
:1027D8002848CDF81C9008940994FDF745FF4FF45C
:1027E800806307A923480793089509940A940B97CF
:1027F800FDF73AFF4FF2100307A91C480793089604
:1028080009940A94FDF730FF4FF4A45307A916481A
:102818000793089509940A94CDF82CA0FDF724FF96
:10282800202307A91148079308940994FDF71CFF72
:102838004FF41073079307A912230E4808930996BB
:102848000A94CDF82C90FDF70FFF07A905480795C6
:10285800CDF820800994FDF707FF00F067F8FEE740
:10286800003802400010024000080240000C0240FC
:1028780000000240000402400000121070470000EF
:1028880007B50E4B002100915A6C42F480425A64FD
:102898005A6C02F480420092009A01911A6C42F03C
:1028A80080521A641B6C03F0805301930720019B2C
:1028B800FDF772FE03B05DF804FB00BF003802406C
:1028C8007047FEE7FEE7FEE7FEE770477047704790
:1028D800FDF73CBE0148FEF72DB800BF18140020D4
:1028E8000F49D1F8883043F47003C1F888300D4B94
:1028F8001A68002042F001021A6098601A6822F0F3
:10290800847222F480321A60074A5A601A6822F4E4
:1029180080221A60D8604FF000638B60704700BF58
:1029280000ED00E0003802401030002410B5094CDA
:10293800094900222046FFF742FB08492046FFF7D5
:1029480053FB20460649FFF712FB2046BDE810401E
:10295800FFF751BBF40100202C01002008000020E3
:102968001C0100200020704710B5084C0146204685
:10297800FFF70CFB01224FF480510548FDF754FF87
:102988002046FFF709FB002010BD00BFF40100201E
:10299800000C024010B5064C064900222046FFF7FD
:1029A800EDFA05492046FFF7F1FA002010BD00BFF7
:1029B800F4010020180C00201804002008B528B9DC
:1029C80001224FF480510248FDF72EFF002008BD78
:1029D800000C024010B50368B3F1A04F86B02DD1AA
:1029E80000244FF4007301A915480193029403943D
:1029F800FDF73AFE4FF4E05301930223029301A935
:102A08000A230F48059303940494FDF72DFE0D4BFC
:102A18005A6B42F080025A6300945A6C42F4804226
:102A28005A645B6C03F4804300934320224621469A
:102A3800009BFDF7C3FD4320FDF7F4FD06B010BD74
:102A4800000002400038024000F56F71D0F8EC0336
:102A5800FFF7E8BA1C2303FB0103D0F8EC03D3F813
:102A68000422FFF70CBB1C2303FB0103D0F8EC0383
:102A78005A6CFFF736BBD0F8EC03FFF7B2BB10B5C2
:102A8800C1680446003118BF0121D0F8EC03FFF7F4
:102A980096FBD4F8EC03BDE81040FFF771BB0000CB
:102AA80010B50446D0F8EC03FFF78CFB2268D2F887
:102AB800003E43F00103C2F8003E236A23B1034AF3
:102AC800136943F00603136110BD00BF00ED00E079
:102AD800D0F8EC03FFF77FBBD0F8EC03FFF78FBB10
:102AE800D0F8EC03FFF789BBD0F8EC03FFF789BBFC
:102AF800D0F8EC03FFF787BB08B5027842BB154B4B
:102B08000421C3F8EC03C0F820324FF0A04083E85A
:102B180003000221D9609961184601211A615A619E
:102B2800DA611A625A62D9621A63FDF782FE08B145
:102B3800FFF7A4FE80210748FEF7C9FA40220021CA
:102B48000448FEF7A3FA802201210248FEF79EFA04
:102B5800002008BD1814002008B5D0F82002FDF7A1
:102B6800D4FE03289ABF024B185C022008BD00BFA0
:102B7800A82F000810B51C46D0F82002134622469C
:102B8800FEF796F903289ABF014B185C022010BD86
:102B9800A82F000808B5D0F82002FEF7B7F90328D7
:102BA8009ABF024B185C022008BD00BFA82F00087E
:102BB80008B5D0F82002FEF718FA03289ABF024B8E
:102BC800185C022008BD00BFA82F000808B5D0F87F
:102BD8002002FEF736FA03289ABF024B185C02203F
:102BE80008BD00BFA82F000811F0800FD0F82032D0
:102BF8004FF01C021BBF01F07F0102FB013102FBF9
:102C0800013191F83A0008BF91F8FA0170470000C5
:102C180008B5D0F82002FEF739F903289ABF024B0D
:102C2800185C022008BD00BFA82F000808B5D0F81E
:102C38002002FEF7BAF903289ABF024B185C02205B
:102C480008BD00BFA82F000808B5D0F82002FEF77D
:102C580080F903289ABF024B185C022008BD00BF08
:102C6800A82F000808B5D0F82002FEF796F908BD8D
:102C780012230B80004870474801002004230B8072
:102C8800004870475C01002010B5044C04480A460F
:102C98002146FFF758FC204610BD00BF0818002049
:102CA800C52F000810B5044C04480A462146FFF712
:102CB8004AFC204610BD00BF08180020D82F000885
:102CC80010B5044C04480A462146FFF73CFC204650
:102CD80010BD00BF08180020EE2F000810B5044CE6
:102CE80004480A462146FFF72EFC204610BD00BFC7
:102CF80008180020AC2F000810B5044C04480A46F8
:102D08002146FFF720FC204610BD00BF0818002010
:102D1800B72F0008DFF834D0002103E00C4B5B58D4
:102D2800435004310B480C4B42189A42F6D30B4AD5
:102D380002E0002342F8043B094B9A42F9D3FFF71B
:102D4800CFFD00F011F8FFF7A9FC70470000022042
:102D58000C30000800000020C4010020C40100203D
:102D68000C1A0020FEE7000070B50D4E0D4CA41B98
:102D7800A4100025A54209D10B4E0C4C00F0FCF81C
:102D8800A41BA4100025A54205D170BD56F8253016
:102D980098470135EEE756F8253098470135F2E7B0
:102DA8000430000804300008043000080830000827
:102DB800024B0146186800F061B800BF60010020AE
:102DC800024B0146186800F00BB800BF60010020F4
:102DD80002440346934200D1704703F8011BF9E708
:102DE80038B50546002945D051F8043C0C1F002B86
:102DF800B8BFE41800F0B0F81F4A1368104633B99A
:102E0800636014602846BDE8384000F0A6B8A342C5
:102E18000CD921686218934204BF1A685B68636022
:102E280004BF521822600460ECE713465A680AB1DE
:102E3800A242FAD919685818A0420BD12068014457
:102E4800581882421960DDD1106852685A600144EE
:102E58001960D7E702D90C232B60D3E72068211823
:102E68008A4204BF11685268626004BF0918216071
:102E78005C60C7E738BD00BFE401002070B5CD1C19
:102E880025F0030508350C2D38BF0C25002D064606
:102E980001DBA94203D90C233360002070BD00F088
:102EA8005BF8234A1468214691B9224C23681BB960
:102EB800304600F041F820602946304600F03CF8E2
:102EC800431C26D10C233360304600F046F8E4E773
:102ED8000B685B1B1AD40B2B0FD90B60CD50CC1889
:102EE800304600F03AF804F10B00231D20F00700EB
:102EF800C31A1BD05A42E25070BD8C420DBF6368A2
:102F08004B686360136018BF0C46E9E70C464968D4
:102F1800CAE7C41C24F00304A04205D0211A304695
:102F280000F00AF80130CDD02560D9E770BD00BFA8
:102F3800E4010020E801002038B5064C00230546CE
:102F48000846236000F00AF8431C02D1236803B145
:102F58002B6038BD081A002070477047044B196869
:102F6800024609B903491960186802441A60704793
:102F7800EC0100200C1A0020F8B500BFF8BC08BC12
:102F88009E467047F8B500BFF8BC08BC9E4670471F
:102F98000000000000000000010203040607080901
:102FA8000002010243444320436F6E666967004391
:102FB800444320496E746572666163650053544DDD
:102FC8006963726F656C656374726F6E69637300B1
:102FD80053544D3332205669727475616C20436FB7
:102FE8006D506F72740030303030303030303030E7
:042FF8003141000063
:082FFC00FCD1FF7F0100000081
:04300400AD01000812
:043008008901000832
:10300C000100000010000000EB1E0008B11E0008BB
:10301C00491E000800000000BF1D0008AD1D00087F
:10302C00191E000800000000000000000000000055
:10303C00F51D0008E91D0008011E00080D1E000802
:10304C0009024300020100C032090400000102021F
:10305C0001000524001001052401000104240202D2
:10306C00052406000107058203080010090401006D
:10307C00020A00000007050102400000070581025A
:10308C004000000009024300020100C032090400A4
:10309C0000010202010005240010010524010001B9
:1030AC00042402020524060001070582030800100F
:1030BC0009040100020A00000007050102000200D9
:1030CC0007058102000200000A0600020000004011
:1030DC000100000009074300020104C0320904008A
:1030EC000001020201000524001001052401000169
:1030FC00042402020524060001070582030800FFD0
:10310C0009040100020A000000070501024000004A
:10311C0007058102400000000024F4009D290008EE
:10312C006D290008C529000871290008792C0008B0
:10313C00852C0008912C0008AD2C0008C92C000827
:10314C00E52C0008012D00081201000202020040CB
:10315C008304405700020102030100000403090428
:10316C0064010020000000000000000000000000CE
:10317C000000000000000000000000000000000043
:10318C000000000000000000000000000000000033
:10319C000000000000000000000000000000000023
:1031AC000000000000000000000000000000000013
:1031BC000000000000000000000000000000000003
:0431CC0000000000FF
:0400000508002D1DA5
:00000001FF
